:1000000012C02AC029C028C027C026C025C024C0CD
:1000100023C022C021C020C01FC01EC01DC01CC0E4
:100020001BC01AC019C011241FBECFEDCDBF10E0F8
:10003000A0E6B0E0EAE9F4E002C005900D92A03637
:10004000B107D9F710E0A0E6B0E001C01D92A036DC
:10005000B107E1F724D01FC2D3CF8B98939A20E049
:1000600040ED57E0839B02C080E00895CA010197EC
:10007000F1F72F5F2A30B1F78FEF08958C98949A9B
:1000800020E040ED57E0849B02C080E00895CA0163
:100090000197F1F72F5F2A30B1F78FEF08958B9812
:1000A000939A8C98949ABE9AC698BC9AC498BA9A15
:1000B000C298BF9AC798B89AC0982FE088E190E09C
:1000C0000FB6F894A89581BD0FBE21BD88EE93E0D0
:1000D00028EC30E0F9013197F1F70197D9F735C0F5
:1000E0008C98949A20E0849907C0CB010197F1F78E
:1000F0002F5F2A30C1F7ADC1A89580E197E2FA01E0
:100100003197F1F70197D9F7A89580E197E2FA01C5
:100110003197F1F70197D9F7A89580E197E2FA01B5
:100120003197F1F70197D9F7A89580E197E2FA01A5
:100130003197F1F70197D9F7A89580E197E2FA0195
:100140003197F1F70197D9F704C060ED77E048ECFB
:1001500050E08C98949A20E0849907C0CB010197D5
:10016000F1F72F5F2A30C1F7BBCF8C98949A20E02B
:10017000849907C0CB010197F1F72F5F2A30C1F7AF
:1001800009C18B98939A8C98949ABE9AC698BC9AF7
:10019000C498BA9AC298BF9AC79AB89AC09888EE7B
:1001A00093E0FA013197F1F70197D9F730E0C69A59
:1001B00080E197E2FA013197F1F70197D9F7A89515
:1001C00080E197E2FA013197F1F70197D9F7A89505
:1001D00080E197E2FA013197F1F70197D9F7A895F5
:1001E00080E197E2FA013197F1F70197D9F7A895E5
:1001F00080E197E2FA013197F1F70197D9F7A895D5
:10020000C69880E197E2FA013197F1F70197D9F7A3
:10021000A89580E197E2FA013197F1F70197D9F7B4
:10022000A89580E197E2FA013197F1F70197D9F7A4
:10023000A89580E197E2FA013197F1F70197D9F794
:10024000A89580E197E2FA013197F1F70197D9F784
:10025000A89580E197E2FA013197F1F70197D9F774
:10026000A89580E197E2FA013197F1F70197D9F764
:10027000A89580E197E2FA013197F1F70197D9F754
:10028000A89580E197E2FA013197F1F70197D9F744
:10029000A89580E197E2FA013197F1F70197D9F734
:1002A000A8958C98949A20E0849907C0CB01019777
:1002B000F1F72F5F2A30C1F710C08B98939A20E096
:1002C000839907C0CB010197F1F72F5F2A30C1F75F
:1002D00004C03F5F333009F06ACF8B98939A20E0D7
:1002E000839914C0CB010197F1F72F5F2A30C1F732
:1002F00020E009C0FA013197F1F70197D9F7A895E5
:100300002F5F2A3A19F080E197E2F4CF8B98939A05
:1003100020E0839907C0CB010197F1F72F5F2A30C6
:10032000C1F7A7C080E197E2FA013197F1F7019791
:10033000D9F7A8958B98939A8C98949ABE9AC69858
:10034000BC9AC498BA9AC298BF9AC798B89AC09AE9
:1003500080E197E2FA013197F1F70197D9F7A89573
:100360008B98939A8C98949ABE9AC698BC9AC49883
:10037000BA9AC298BF9AC798B89AC0988C98949A1B
:1003800020E08499C3CFCB010197F1F72F5F2A308A
:10039000C1F77FC08B98939A8C98949ABE9AC6980E
:1003A000BC9AC498BA9AC298BF9AC798B89AC0988B
:1003B00080E197E2FA013197F1F70197D9F7A89513
:1003C00080E197E2FA013197F1F70197D9F7A89503
:1003D00080E197E2FA013197F1F70197D9F7A895F3
:1003E00080E197E2FA013197F1F70197D9F7A895E3
:1003F00080E197E2FA013197F1F70197D9F7A895D3
:1004000080E197E2FA013197F1F70197D9F7A895C2
:1004100080E197E2FA013197F1F70197D9F7A895B2
:1004200080E197E2FA013197F1F70197D9F7A895A2
:1004300080E197E2FA013197F1F70197D9F7A89592
:1004400080E197E2FA013197F1F70197D9F7A89582
:1004500080CE8B98939A8C98949ABE9AC698BC9AA0
:10046000C498BA9AC29ABF9AC798B89AC098A895E1
:1004700037CE8B98939A8C98949ABE9AC698BC9AC9
:10048000C49ABA9AC298BF9AC798B89AC098A895C1
:0A04900075CFA8957FCFF894FFCF39
:00000001FF
