:1000000012C02AC029C028C027C026C025C024C0CD
:1000100023C022C021C020C01FC01EC01DC01CC0E4
:100020001BC01AC019C011241FBECFEDCDBF10E0F8
:10003000A0E6B0E0E0ECF2E002C005900D92A03640
:10004000B107D9F710E0A0E6B0E001C01D92A036DC
:10005000B107E1F720D032C1D3CF20E040ED57E027
:10006000859B02C080E00895CA010197F1F72F5FD8
:100070002A30B1F78FEF089520E040ED57E08499E2
:1000800002C080E00895CA010197F1F72F5F2A307E
:10009000B1F78FEF08950F931F938FEF87BB11BABE
:1000A0002FE088E190E00FB6F894A89581BD0FBECF
:1000B00021BD88EE93E028EC30E0F9013197F1F7AB
:1000C0000197D9F720E0AFEFBFEE13E060ED77E0E6
:1000D00048EC50E00FE806C0849B07C0CB010197B5
:1000E000F1F72F5F2A30C0F3DDC020E0849B07C00A
:1000F000CB010197F1F72F5F2A30C1F7C9C018BAB9
:10010000A7BB11BAB2BBC79A88EE93E0FA01319748
:10011000F1F70197D9F730E0C69A80E197E2FA014A
:100120003197F1F70197D9F7A89580E197E2FA01A5
:100130003197F1F70197D9F7A89580E197E2FA0195
:100140003197F1F70197D9F7A89580E197E2FA0185
:100150003197F1F70197D9F7A89580E197E2FA0175
:100160003197F1F70197D9F7A895C69880E197E202
:10017000FA013197F1F70197D9F7A89580E197E255
:10018000FA013197F1F70197D9F7A89580E197E245
:10019000FA013197F1F70197D9F7A89580E197E235
:1001A000FA013197F1F70197D9F7A89580E197E225
:1001B000FA013197F1F70197D9F7A89580E197E215
:1001C000FA013197F1F70197D9F7A89580E197E205
:1001D000FA013197F1F70197D9F7A89580E197E2F5
:1001E000FA013197F1F70197D9F7A89580E197E2E5
:1001F000FA013197F1F70197D9F7A89580E197E2D5
:10020000FA013197F1F70197D9F7A89520E0849B7F
:1002100007C0CB010197F1F72F5F2A30C1F716C055
:1002200020E0859907C0CB010197F1F72F5F2A30B5
:10023000C1F70CC03F5F333009F06ECF07C085991E
:1002400009C0CB010197F1F72F5F01C020E02A30F0
:10025000B0F32FC080E197E2FA013197F1F70197EF
:10026000D9F7A895C49A80E197E2FA013197F1F79E
:100270000197D9F7A89518BA20E0849902C020E028
:10028000DECFCB010197F1F72F5F2A30B1F714C011
:1002900018BA80E197E2FA013197F1F70197D9F79F
:1002A000A89505C0A7BB11BAB2BB18BBA89520E0A2
:1002B00013CFA89508BBE0CFA895EACFF894FFCF5D
:00000001FF
