:1000000012C02AC029C028C027C026C025C024C0CD
:1000100023C022C021C020C01FC01EC01DC01CC0E4
:100020001BC01AC019C011241FBECFEDCDBF10E0F8
:10003000A0E6B0E0E2ECF3E002C005900D92A0363D
:10004000B107D9F710E0A0E6B0E001C01D92A036DC
:10005000B107E1F771D0B3C1D3CF80E49CE9019738
:10006000F1F708958A98929A80E49CE90197F1F754
:10007000829B02C080E001C08FEFE0E4FCE9319791
:10008000F1F7829980E0E0E4FCE93197F1F7829999
:1000900080E0089588988998909A919A80E49CE9E4
:1000A0000197F1F7809B04C0819B02C080E001C0F2
:1000B0008FEFE0E4FCE93197F1F7809B02C0819972
:1000C00080E0E0E4FCE93197F1F7809B02C0819980
:1000D00080E008958B98939A80E49CE90197F1F76A
:1000E000839B02C080E001C08FEFE0E4FCE9319720
:1000F000F1F7839980E0E0E4FCE93197F1F7839927
:1001000080E0089590E048EC50E013C028E833E127
:10011000FA013197F1F721503040D1F7A89528E83E
:1001200033E1FA013197F1F721503040D1F7A8952A
:100130009F5F981758F30895EF92FF921F93CF9304
:10014000DF93C698C398C298C198C098C498909AF3
:10015000919A929A939A889889988A988B98BE9A3D
:10016000BB9ABA9AB99AB89ABC9A2FE088E190E003
:100170000FB6F894A89581BD0FBE21BD88EE93E01F
:1001800028EC30E0F9013197F1F70197D9F71EE13A
:1001900080E4E82E8CE9F82EC8ECD0E03DC0BE9A91
:1001A000BB9ABA9AB99AB89ABC9AC7010197F1F763
:1001B000C398C298C198C09AC49888E893E1FE0198
:1001C0003197F1F70197D9F7A89588E893E1FE01F7
:1001D0003197F1F70197D9F7A895112311F0115034
:1001E00001C0C69877DF8823D1F620E011C0FE0158
:1001F0003197F1F70197D9F7A89588E893E1FE01C7
:100200003197F1F70197D9F7A8952F5F253021F0A5
:1002100088E893E1ECCF1EE15DDF882319F75ADF10
:10022000882309F0B0C0C69A10E0C39AC298C1985A
:10023000C098C49820E011C0FE013197F1F70197F2
:10024000D9F7A89588E893E1FE013197F1F7019776
:10025000D9F7A8952F5F243019F088E893E1ECCF07
:10026000C29A20E011C0FE013197F1F70197D9F74A
:10027000A89588E893E1FE013197F1F70197D9F746
:10028000A8952F5F233019F088E893E1ECCFC2984E
:10029000C39820E011C0FE013197F1F70197D9F71B
:1002A000A89588E893E1FE013197F1F70197D9F716
:1002B000A8952F5F2A3019F088E893E1ECCF0ADF88
:1002C000882339F4CFDE882321F41F5F133009F02F
:1002D000ACCFC8DE8823B1F020E011C0FE01319719
:1002E000F1F70197D9F7A89588E893E1FE013197D6
:1002F000F1F70197D9F7A8952F5F243019F088E816
:1003000093E1ECCF88E893E1FE013197F1F7019793
:10031000D9F7A89588E893E1FE013197F1F70197A5
:10032000D9F7A895BE9ABB9ABA9AB99AB89ABC9AC4
:10033000C7010197F1F796DE882349F0ABDE8823E9
:1003400031F4C69AC398C298C19AC09816C0C6988C
:10035000C398C298C198C098C49A88E893E1FE01F6
:100360003197F1F70197D9F7A89588E893E1FE0155
:100370003197F1F70197D9F7A895C498ABDE882398
:1003800009F4C0CFA895C398C298C198C098C498E2
:1003900020E012C0FE013197F1F70197D9F7A89537
:1003A00088E893E1FE013197F1F70197D9F7A89515
:1003B0002F5F2A3009F42FCF88E893E1EBCFF89430
:0203C000FFCF6D
:00000001FF
