:1000000012C02AC029C028C027C026C025C024C0CD
:1000100023C022C021C020C01FC01EC01DC01CC0E4
:100020001BC01AC019C011241FBECFEDCDBF10E0F8
:10003000A0E6B0E0EEE5F4E002C005900D92A03637
:10004000B107D9F710E0A0E6B0E001C01D92A036DC
:10005000B107E1F753D001C2D3CF8A98929A20E03A
:1000600040ED57E0829B02C080E00895CA010197ED
:10007000F1F72F5F2A30B1F78FEF08958998919AA1
:100080008898909A20E040ED57E0809B04C0819BC7
:1000900002C080E00895CA010197F1F72F5F2A306E
:1000A000A1F78FEF08958B98939A20E040ED57E0E9
:1000B000839B02C080E00895CA010197F1F72F5F8A
:1000C0002A30B1F78FEF089590E048EC50E013C06C
:1000D00028E833E1FA013197F1F721503040D1F7A8
:1000E000A89528E833E1FA013197F1F72150304023
:1000F000D1F7A8959F5F981758F308950F931F9312
:10010000CF93DF938A98929A8B98939ABA9AC298CF
:10011000B89AC098B99AC198BC9AC498BB9AC39827
:10012000BE9AC6982FE088E190E00FB6F894A895A3
:1001300081BD0FBE21BD88EE93E028EC30E0F901CF
:100140003197F1F70197D9F73CE300ED17E0C8ECE0
:10015000D0E036C0FE013197F1F70197D9F7A895A5
:1001600088E893E1FE013197F1F70197D9F7A89557
:10017000332311F0315001C0C6988B98939A20E038
:10018000839B02C020E018C0C8010197F1F72F5FE0
:100190002A30B1F74DC1FE013197F1F70197D9F738
:1001A000A89588E893E1FE013197F1F70197D9F717
:1001B000A8952F5F253021F088E893E1ECCF3CE350
:1001C0008B98939A20E0839907C0C8010197F1F7B3
:1001D0002F5F2A30C1F7D1CF8B98939A20E0839973
:1001E00007C0C8010197F1F72F5F2A30C1F7FFC0A0
:1001F000BA9AC298B89AC098B99AC198BC9AC49849
:10020000BB9AC39ABE9AC69A20E011C0FE013197EC
:10021000F1F70197D9F7A89588E893E1FE013197A6
:10022000F1F70197D9F7A8952F5F263019F088E8E4
:1002300093E1ECCF30E0BA9AC29A20E011C0FE01FF
:100240003197F1F70197D9F7A89588E893E1FE0176
:100250003197F1F70197D9F7A8952F5F253019F05D
:1002600088E893E1ECCFBA9AC298BB9AC39820E091
:1002700011C0FE013197F1F70197D9F7A89588E8E9
:1002800093E1FE013197F1F70197D9F7A8952F5F18
:100290002A3019F088E893E1ECCF8B98939A20E00C
:1002A000839907C0C8010197F1F72F5F2A30C1F782
:1002B00010C08A98929A20E0829907C0C8010197DD
:1002C000F1F72F5F2A30C1F704C03F5F333009F0E8
:1002D000B2CF8A98929A20E082991CC0C8010197F7
:1002E000F1F72F5F2A30C1F720E011C0FE013197EE
:1002F000F1F70197D9F7A89588E893E1FE013197C6
:10030000F1F70197D9F7A8952F5F243019F088E805
:1003100093E1ECCF8A98929A20E0829924C0C80198
:100320000197F1F72F5F2A30C1F790C088E893E179
:10033000FE013197F1F70197D9F7A89588E893E185
:10034000FE013197F1F70197D9F7A895BA9AC298AB
:10035000B89AC098B99AC19ABC9AC498BB9AC398E3
:10036000BE9AC69A38C088E893E1FE013197F1F74A
:100370000197D9F7A89588E893E1FE013197F1F745
:100380000197D9F7A895BA9AC298B89AC098B99A1D
:10039000C198BC9AC49ABB9AC398BE9AC69888E87A
:1003A00093E1FE013197F1F70197D9F7A89588E815
:1003B00093E1FE013197F1F70197D9F7A895BA9A21
:1003C000C298B89AC098B99AC198BC9AC498BB9A76
:1003D000C398BE9AC6988B98939A20E083999ACF37
:1003E000C8010197F1F72F5F2A30C1F734C0BA9ADC
:1003F000C298B89AC098B99AC198BC9AC498BB9A46
:10040000C39820E012C0FE013197F1F70197D9F7A8
:10041000A89588E893E1FE013197F1F70197D9F7A4
:10042000A8952F5F2A3009F4CACE88E893E1EBCF74
:10043000BA9AC298B89AC09AB99AC198BC9AC49804
:10044000BB9AC398BE9A88E893E184CE17DE8823CE
:0E04500009F089CF6BCFA895CACFF894FFCFE3
:00000001FF
